:020000040800F2
:1000000040490020E901000869040008870300084E
:1000100065040008550200083D08000800000000C3
:100020000000000000000000000000004501000882
:100030005902000800000000890100082912000888
:10004000030200080302000803020008030200087C
:10005000030200080302000803020008030200086C
:10006000030200080302000803020008030200085C
:10007000030200080302000803020008030200084C
:10008000030200080302000803020008030200083C
:10009000030200080302000803020008030200082C
:1000A000030200080302000803020008030200081C
:1000B000030200080302000803020008030200080C
:1000C00003020008030200080302000803020008FC
:1000D00003020008030200080302000803020008EC
:1000E00003020008030200080302000803020008DC
:1000F00003020008030200080302000803020008CC
:1001000003020008030200080302000803020008BB
:1001100003020008030200080302000803020008AB
:10012000030200080302000803020008030200089B
:10013000DFF80CD000F07CF800480047B508000854
:1001400040490020204B19680868B0E8F00F80F3A0
:100150000988BFF36F8F4FF0000080F311884EF0D5
:100160000D0E70470000000006480068006880F32C
:10017000088862B661B6BFF34F8FBFF36F8F00DFA1
:1001800000BF00BF08ED00E0EFF30980BFF36F8F01
:100190000D4B1A6820E9F00F106008B54FF0BF0052
:1001A00080F3118800F0F6FF4FF0000080F3118813
:1001B000BDE8084019680868B0E8F00F80F30988C6
:1001C000BFF36F8F704700BF38000020EFF311803E
:1001D0004FF0BF0181F31188704780F31188704799
:1001E000EFF3058070470000064880470648004747
:1001F000FEE7FEE7FEE7FEE7FEE7FEE7FEE7FEE7D7
:10020000FEE7FEE7490600083101000840EA010365
:100210009B0703D009E008C9121F08C0042AFAD2BC
:1002200003E011F8013B00F8013B521EF9D2704780
:10023000064C074D06E0E06840F0010394E8070033
:1002400098471034AC42F6D3FFF776FFD418000875
:10025000F418000800BFFEE770472DE9F0410246A0
:1002600000250026002000230024002791F803C069
:100270000CF00F0591F803C00CF0100CBCF1000F4E
:1002800003D091F802C04CEA050591F800C0BCF11A
:10029000000F31D0146800202BE04FF0010C0CFA55
:1002A00000F3B1F800C00CEA03069E4220D183009F
:1002B0004FF00F0C0CFA03F7BC4305FA03FC4CEAB1
:1002C000040491F803C0BCF1280F06D14FF0010CD3
:1002D0000CFA00FCC2F814C00AE091F803C0BCF1AB
:1002E000480F05D14FF0010C0CFA00FCC2F810C009
:1002F000401C0828D1D31460B1F800C0BCF1FF0F36
:1003000034DD546800202EE000F1080C4FF00108A5
:1003100008FA0CF3B1F800C00CEA03069E4221D1A2
:1003200083004FF00F0C0CFA03F7BC4305FA03FCF3
:100330004CEA040491F803C0BCF1280F05D100F188
:10034000080C08FA0CF8C2F8148091F803C0BCF14C
:10035000480F07D100F1080C4FF0010808FA0CF81B
:10036000C2F81080401C0828CED35460BDE8F0814C
:100370000246002093680B400BB1012000E00020F2
:1003800070470161704700BFFEE7000008B501211A
:10039000402000F06BF82020ADF8000048208DF8D8
:1003A000030069460148FFF758FF08BD00180140E7
:1003B00008B50121402000F059F81020ADF80000E8
:1003C00048208DF8030069460148FFF746FF08BD45
:1003D0000018014010B5FFF7D9FFFFF7E9FF10BD86
:1003E00008B50121102000F041F84020ADF80000D0
:1003F00010208DF8030003208DF8020069460D4897
:10040000FFF72BFF0121102000F030F88020ADF81D
:10041000000069460748FFF720FF0121202000F077
:1004200025F84020ADF8000069460348FFF715FFA6
:1004300008BD0000001001400014014010B5FFF796
:10044000CFFF40210548FFF79CFF80210348FFF7BD
:1004500098FF40210248FFF794FF10BD00100140B3
:100460000014014000BFFEE77047000029B1064AB2
:1004700092690243044B9A6104E0034A9269824301
:10048000014B9A61704700000010024030B5002116
:100490000022002400232D4D6D6805F00C0121B1D0
:1004A000042905D0082923D105E0294D056022E063
:1004B000274D05601FE0254D6D6805F47012234D32
:1004C0006D6805F48034022505EB92421CB9214D7C
:1004D000554305600BE01D4D6D6805F400351DB1F9
:1004E0001C4D5543056002E0194D5543056002E07F
:1004F000174D056000BF00BF144D6D6805F0F00199
:100500000909154D6B5C0568DD4045600F4D6D6850
:1005100005F4E061090A104D6B5C4568DD408560BB
:100520000A4D6D6805F46051C90A0B4D6B5C456856
:10053000DD40C560054D6D6805F44041890B074DF0
:100540006B5CC568B5FBF3F5056130BD001002407A
:1005500000127A0000093D00000000201000002079
:1005600010B500F001F810BD0CB50020019000900E
:100570003348006840F480303149086000BF30489B
:10058000006800F4003000900198401C0190009831
:1005900018B90198B0F5A06FF1D12948006800F4AE
:1005A000003010B10120009001E000200090009880
:1005B000012843D12348006840F010002149086019
:1005C0000846006820F0030008600846006840F014
:1005D000020008601A4840681949486008464068A7
:1005E00048600846406840F48060486008464068BB
:1005F00020F47C1048600846406840F4E8104860E9
:100600000846006840F08070086000BF0C48006831
:1006100000F000700028F9D00948406820F003007D
:10062000074948600846406840F00200486000BF43
:100630000348406800F00C000828F9D10CBD000008
:10064000001002400020024010B51348006840F03E
:1006500001001149086008464068104908400E49E9
:100660004860084600680E4908400B490860084683
:10067000006820F4802008600846406820F4FE00EE
:1006800048604FF41F008860FFF76AFF4FF000607A
:100690000449086010BD0000001002400000FFF88F
:1006A000FFFFF6FE08ED00E021B1828942F400521E
:1006B000828104E082894DF6FF731A40828170477F
:1006C00002460020B1F5007F00D100BF13880B4027
:1006D0000BB1012000E00020704700002DE9F04739
:1006E00086B005460E460024A24600BFA14600275C
:1006F000B08900B100BF2F462C8A4CF6FF70044031
:10070000F08804432C82AC894EF6F3100440B08884
:1007100031890843718908430443AC81AC8A4FF6A0
:10072000FF400440B0890443AC8201A8FFF7AEFE4D
:100730001F48874202D1DDF810A001E0DDF80CA0CF
:10074000A88900F4004040B10AEBCA0000EB0A108F
:1007500031684900B0FBF1F807E00AEBCA0000EB92
:100760000A1031688900B0FBF1F86420B8FBF0F0A2
:1007700004012009642101FB1089A88900F40040CC
:1007800040B1322000EBC900B0FBF1F000F00700EF
:10079000044308E0322000EB09106421B0FBF1F0C3
:1007A00000F00F0004432C8106B0BDE8F087000084
:1007B00000380140C1F308028280704700B585B05F
:1007C00001218803FFF752FE01210420FFF74EFEAE
:1007D0004FF40070ADF8100018208DF813000320BE
:1007E0008DF8120004A91348FFF737FD4FF480601D
:1007F000ADF8100004208DF8130004A90D48FFF790
:100800002CFD4FF4E13000900020ADF80400ADF86D
:100810000600ADF80800ADF80C000C20ADF80A0099
:1008200069460548FFF75AFF01210348FFF73CFFDF
:1008300005B000BD000801400038014000BFFEE7E0
:10084000014A024900F013B8910800087000002026
:1008500002E008C8121F08C1002AFAD17047704789
:10086000002001E001C1121F002AFBD170472DE9D1
:10087000F04116460F460446002503E03946B047CE
:10088000641C6D1C20780028F8D12846BDE8F08152
:1008900070B504460D46E1B20548FFF78BFF00BF77
:1008A00080210348FFF70CFF0028F9D0204670BDD7
:1008B000003801401FB500200123CDE9003002902F
:1008C00003464FF4007205A10390074800F046FE6E
:1008D00000F02EFC002004B010BD00005461736BCA
:1008E00020537461727400009510000810B504461E
:1008F0000E48006844600E480068844207D20B48E6
:100900000168091D0B48006800F052FA0CE0074826
:100910000168091D0848006800F04AFA07480068A5
:10092000844201D20548046010BD00003800002058
:100930004C000020400000203C0000206800002007
:100940002DE9F04106460F461FB9B00000F0A0F9AE
:1009500000E03846054655B14C2000F099F90446B0
:100960000CB1256304E0284600F068FA00E000249A
:100970002046BDE8F081000070B523E000F002FCE5
:100980001348006808B9012000E00020054600F087
:1009900033FFBDB900F032FA0D48C068C468201DAD
:1009A00000F0E2F90B480068401E0A4908600A4856
:1009B0000068401E0849086000F030FA204600F048
:1009C00059F800BF044800680028D7D170BD000066
:1009D00014450020480000204400002070B5044663
:1009E0000D46206C70B1216CE0680844E0606168DD
:1009F000E068884201D32068E0602846226CE16804
:100A0000FFF704FC70BD2DE9F04104460E46154683
:100A10000027206C40B37DB93146226CA068FFF7F7
:100A2000F5FB216CA0680844A060D4E9011088425D
:100A30001AD32068A06017E03146226CE068FFF707
:100A4000E5FB216CE068401AE0602168E0688842BC
:100A500003D2216C6068401AE060022D04D1A06BC3
:100A600010B1A06B401EA063A06B401CA063384671
:100A7000BDE8F08110B50446206B00F0DFF9204698
:100A800000F0DCF910BD00000A4A22F007000A4A13
:100A900010600022084B5A6044F2F832074B5A604B
:100AA00000221A60014644F2F8324A601A460A608F
:100AB000704700007C0000201C0000202400002063
:100AC00000BFFFF759FF034800680128F9D900F07B
:100AD000DFF9F6E7744400202DE9F04704460F469D
:100AE00016469946DDF82080002507E0795D04F17F
:100AF00034004155785D00B902E06D1C102DF5D32E
:100B000000BF002143200155052E00D30426E662D4
:100B1000201D00F04AF904F1180000F046F92461A4
:100B2000C6F10500A06164620020606484F848009A
:100B3000BDE8F08710B5002407E004EB84010F4AFC
:100B400002EB810000F024F9641C052CF5D30C485D
:100B500000F01EF90B4800F01BF90B4800F018F9E3
:100B60000A4800F015F90A4800F012F9044809494A
:100B7000086004480849086010BD00007444002063
:100B8000D8440020EC4400200045002014450020FB
:100B9000284500203C0000204000002070B505469C
:100BA00000F02CF9A86B08B9012400E0002400F043
:100BB00035F9204670BD70B5054600F01FF9A86BE9
:100BC000E96B884201D1012400E0002400F026F9FD
:100BD000204670BD0A490968096809B9012100E089
:100BE000002121B14FF0FF31064A116006E00449AF
:100BF0000968C968C868034A416811607047000005
:100C00003C00002068000020FFF7E0FA00BFFEE78C
:100C100010B5044600F0F2F811E0606A08B901204E
:100C200000E0002038B904F1240000F0A5FD18B15F
:100C300000F0ECF900E005E0A06C401EA064A06CA0
:100C40000028EADC00BF4FF0FF30A06400F0E6F8B7
:100C500000F0D4F811E0206908B9012000E000207C
:100C600050B904F1100000F087FD08B100F0CEF992
:100C7000606C401E606400E002E0606C0028EADC0A
:100C800000BF4FF0FF30606400F0C8F810BD0000F6
:100C90002DE9F04104464FF0000800F073FA2648B1
:100CA000006820B9FFF7F0FE01202349086044B135
:100CB000083404F0070020B104F00700C0F1080078
:100CC0000444002C32D044F2F83084422ED21B4F20
:100CD0003846056801E02F462D686868A04202D2B8
:100CE00028680028F7D1164885421FD0386800F1DF
:100CF0000808286838606868001B102810D92E1969
:100D00006868001B70606C6071680C4800E00068E7
:100D1000026852688A42FAD302683260066000BFF5
:100D2000084968680968081A0649086000F064FD07
:100D30004046BDE8F0810000300000201C0000208B
:100D4000240000202C000020001F4FF0807303605F
:100D5000001F0160001F034B03601438026020383D
:100D600070470000090C000801460A69D1E901300A
:100D70009860D1E9010358605068884201D18868C1
:100D80005060002008611068401E106010687047B5
:100D900000F1080141604FF0FF31816000F108016E
:100DA000C16001610021016070470021016170474D
:100DB00010B502460B685C1C0CB9106907E002F123
:100DC000080000E04068446824689C42FAD94468FE
:100DD0004C604C68A160886041600A611468641CC2
:100DE000146010BD42684A6093688B6093685960D4
:100DF0009160086103685B1C0360704710B5FFF7E2
:100E0000E5F905480068401C03490860BFF34F8FAF
:100E1000BFF36F8F10BD00003400002010B50648EE
:100E20000068401E044908600846006810B90020A8
:100E3000FFF7D3F910BD00003400002070B506465E
:100E40003546B6B1083D2C4600F09CF9616809486A
:100E500000E00068026852688A42FAD302682260A1
:100E6000046005496068096808440349086000F0A7
:100E7000C3FC70BD1C0000202C00002003484FF074
:100E8000E021486107200861704700003F19010018
:100E90004FF0805003490860BFF34F8FBFF36F8F4F
:100EA0007047000004ED00E070B504460026DCB198
:100EB00000F068F90E48006805190E480068001D2A
:100EC000FFF752FF50B90B48006890F82C10012032
:100ED0008840094909688143074801602846FFF7AF
:100EE00005FD00F089FC06460EB9FFF7D1FF70BD85
:100EF0004C000020380000205000002070B505464E
:100F0000FFF77CFF15B92048006800E0284604463A
:100F1000201DFFF729FF78B9E06A00EB80001B492C
:100F200051F8200040B994F82C100120884018494D
:100F30000968814316480160A06A18B104F11800DD
:100F4000FFF712FF211D1348FFF74CFF12480068FE
:100F5000401C1149086011480068401C0F49086096
:100F6000FFF75CFF0E48006860B1074800688442E4
:100F700002D1FFF78DFF05E0FFF740FFFFF72AFEE4
:100F8000FFF74CFF70BD00003800002074440020C3
:100F90005000002014450020440000206400002080
:100FA0005400002016E020210B48FFF7E1F970B94A
:100FB0003220FFF779FF20210748FFF7D9F930B930
:100FC00000231A4619460548006800F023FA142049
:100FD000FFF76AFFE7E70000001801401400002057
:100FE00009E000235A1E19460348006800F05CF926
:100FF00002A0FFF725FCF4E7140000200D0A4B6562
:10100000792070726573730D0A0000000120014998
:10101000086070475C00002070B506460C46134817
:10102000016818313046FFF7C3FE10480068001D04
:10103000FFF79AFE50B90D48006890F82C10012077
:1010400088400B490968814309480160601C30B938
:1010500006480168091D0748FFF7C4FE05E0064879
:10106000006805192846FFF741FC70BD38000020D4
:1010700050000020284500204C000020034909684A
:10108000016003490968416070470000600000206A
:101090004C0000201FB50446FFF7D0F9FFF79AF97E
:1010A000FFF78CFB13A0FFF7CBFB0021012000F022
:1010B000CBF81649086000200123CDE900300290EA
:1010C00003464FF4007212A10390144800F046FA50
:1010D00000200123CDE90030029003464FF4007256
:1010E0000FA10390114800F039FA0020FFF706FF26
:1010F0001FBD00000D0A73656D6170686F72652019
:1011000062696E6172790D0A00000000140000200F
:101110005461736B204C656431000000E10F0008DE
:101120005461736B204B657900000000A50F000827
:101130001FB50020009001900290034680220BA171
:1011400003900C4800F00AFA0446012C0CD1FFF77A
:101150003DF8A01E084908600120084908600020E9
:101160000749086000F046F81FBD000049444C459F
:1011700000000000C10A00086800002054000020A0
:101180004C00002002480068401C0149086070477C
:101190006C0000201248006818B101201149086055
:1011A0001DE000200F4908600F480068B0FA80F089
:1011B000C0F11F0101EB81020C4B03EB820042687E
:1011C0005268426000F108024368934202D14268CB
:1011D000526842604268D268054B1A6000BF70478F
:1011E0006C0000205C0000205000002074440020AF
:1011F0003800002010B50A48006840F47F00084914
:1012000008600846006840F07F400860FFF736FE3F
:10121000002004490860FEF7A7FF002010BD000071
:1012200020ED00E03400002010B5FEF7CFFF00F005
:1012300013FA18B14FF08050024908600020FEF701
:10124000CCFF10BD04ED00E070B506460D4602224D
:101250000021304600F005F8044604B1A56320469D
:1012600070BD2DE9F04706460D4691464FF0000847
:101270000DB9002702E006FB05F0471C07F14C0002
:10128000FFF706FD044664B10DB9246002E004F1E5
:101290004C002060E66325640121204600F083F8BD
:1012A000A0464046BDE8F0872DE9FF4383B00546E0
:1012B00088461E464FF000092C4600BFFFF79EFDF2
:1012C000A06B58B3E76841462046FFF787FB8EB90D
:1012D000A06B401EA063206908B9012000E0002037
:1012E000B0B904F1100000F047FA012810D1FFF75F
:1012F000CFFD0DE0E760606A08B9012000E0002042
:1013000030B904F1240000F037FA08B1FFF7C0FD4E
:10131000FFF784FD012007B0BDE8F083059818B9F8
:10132000FFF77CFD0020F6E7B9F1000F04D101A81A
:10133000FFF7A4FE4FF00109FFF770FDFFF722FF52
:10134000FFF75CFD606C401C08B900206064A06C75
:10135000401C08B90020A064FFF760FD05A901A8A2
:1013600000F0CEF8C0B92046FFF718FC70B104F1C8
:1013700024000599FFF750FE2046FFF749FC00F0D6
:101380003BFA00289AD1FFF783FD97E72046FFF745
:101390003FFC00F031FA91E72046FFF739FC00F0FE
:1013A0002BFA0020B7E770B505460E462C46FFF72E
:1013B00025FDD4E90F12206801FB020060600020C7
:1013C000A0632068A060E06B401E226C216800FBD7
:1013D0000210E0604FF0FF306064A06476B92069CD
:1013E00008B9012000E0002080B904F1100000F0ED
:1013F000C3F901280AD1FFF74BFD07E004F1100003
:10140000FFF7C6FC04F12400FFF7C2FCFFF706FD5E
:10141000012070BD2DE9FF4383B0074688461D4675
:101420004FF000093C4600BFFFF7E8FCA06BE16B02
:10143000884201D3022D1DD12A4641462046FFF79E
:10144000E2FA0646606A08B9012000E0002040B9CF
:1014500004F1240000F090F9012805D1FFF718FDF0
:1014600002E00EB1FFF714FDFFF7D8FC012007B032
:10147000BDE8F083059818B9FFF7D0FC0020F6E727
:10148000B9F1000F04D101A8FFF7F8FD4FF00109F1
:10149000FFF7C4FCFFF776FEFFF7B0FC606C401C62
:1014A00008B900206064A06C401C08B90020A0644A
:1014B000FFF7B4FC05A901A800F022F8C0B9204646
:1014C000FFF779FB70B104F110000599FFF7A4FD57
:1014D0002046FFF79DFB00F08FF90028A4D1FFF70D
:1014E000D7FCA1E72046FFF793FB00F085F99BE7C7
:1014F0002046FFF78DFB00F07FF90020B7E70000E2
:1015000070B504460D46FFF779FC1248026828685A
:10151000401C08B9002619E00F4920680968884274
:1015200004D06068904201D801260FE06068101A6C
:101530002968884209D228686168511A401A2860CF
:101540002046FFF79BFD002600E00126FFF766FC22
:10155000304670BD4C000020600000202DE9FF4F98
:1015600081B0804615469946DDE90E7A28461099E5
:10157000FFF7E6F90446002C4FD0681E216B01EB03
:10158000800B2BF0070B00953A462046119B0299E1
:10159000FFF7A2FA4A4641465846FFF7D5FB2060BE
:1015A000BAF1000F01D0CAF80040FFF727FC244829
:1015B0000068401C224908602248006840B9214860
:1015C00004600846006801280CD1FFF7B3FA09E06F
:1015D0001D48006830B91B480068C06AB84201D88D
:1015E0001848046019480068401C1849086094F8BD
:1015F0002C100120884016490968084314490860E6
:10160000E16A01EB8101134A02EB8100211DFFF722
:10161000E9FB0126FFF702FC01E04FF0FF36012E47
:1016200009D10948006830B106480068C06AB8426C
:1016300001D2FFF72DFC304605B0BDE8F08F000069
:1016400048000020380000205400002064000020E2
:1016500050000020744400202DE9F04100273B4851
:101660000068002865D13A480068401C3849086085
:10167000084606688EB93748D0F8008036480068BA
:10168000344908603448C0F8008034480068401C81
:1016900032490860FFF79EFA00BF31480068864271
:1016A0003BD300BF2B480068006808B9012000E068
:1016B000002020B14FF0FF30294908602CE0254878
:1016C0000068C068C4686568AE4202D224480560FC
:1016D00022E0201DFFF748FBA06A18B104F11800B2
:1016E000FFF742FB94F82C10012088401D4909683F
:1016F00008431C490860E16A01EB81011A4A02EBC8
:101700008100211DFFF76EFB1849E06A0968C96A6C
:101710008842C7D30127C5E700BF14480068C06AE4
:1017200000EB8000104951F82000012806D901275C
:1017300004E00F480068401C0D4908600D4800682F
:1017400000B101273846BDE8F08100006C000020A0
:101750004C0000203C0000204000002060000020E1
:101760006800002050000020744400203800002051
:10177000580000205C00002070B50646F068C46880
:1017800004F11800FFF7F0FA15480068A8B9201D09
:10179000FFF7EAFA94F82C100120884011490968F3
:1017A000084310490860E16A01EB81010E4A02EB2F
:1017B0008100211DFFF716FB04E004F118010B481E
:1017C000FFF710FB0A49E06A0968C96A884204D930
:1017D000012501200749086000E00025284670BD6A
:1017E0006C000020500000207444002000450020C0
:1017F000380000205C00002070B50025FFF7FEFADD
:101800002C480068401E2B490860084600680028E4
:101810004BD129480068002847D024E02748C068F9
:10182000C46804F11800FFF79FFA201DFFF79CFA27
:1018300094F82C1001208840214909680843204968
:101840000860E16A01EB81011E4A02EB8100211D63
:10185000FFF7C8FA1C49E06A0968C96A884202D3DE
:1018600001201A4908601548006808B9012000E005
:1018700000200028D2D01648006878B10AE0FFF7AF
:10188000EBFE10B101201149086011480068401EAC
:101890000F4908600E4800680028F0D10B48006826
:1018A000012802D10125FFF7F3FAFFF7B7FA28461E
:1018B00070BD00006C0000204800002000450020A2
:1018C0005000002074440020380000205C000020FC
:1018D00058000020F41800080000002074000000E8
:1018E000500800086819000874000020CC48000067
:1018F0006008000800000000010203040102030464
:1019000006070809020406080000000000000000A5
:1019100000000000000000000000000000000000C7
:10192000F843000000000000AAAAAAAA00000000D4
:1019300000000000000000000000000000000000A7
:101940000000000000000000000000000000000097
:101950000000000000000000000000000000000087
:0819600000000000000000007F
:0400000508000131BD
:00000001FF
